{
    "_format": "hh-sol-artifact-1",
    "contractName": "MyContract",
    "sourceName": "contracts/MyContract.sol",
    "abi": [
        {
            "inputs": [],
            "stateMutability": "nonpayable",
            "type": "constructor"
        },
        {
            "anonymous": false,
            "inputs": [
                {
                    "indexed": false,
                    "internalType": "uint256",
                    "name": "id",
                    "type": "uint256"
                },
                {
                    "indexed": false,
                    "internalType": "string",
                    "name": "name",
                    "type": "string"
                },
                {
                    "indexed": false,
                    "internalType": "string",
                    "name": "phone",
                    "type": "string"
                }
            ],
            "name": "ContactCreated",
            "type": "event"
        },
        {
            "inputs": [],
            "name": "_owner",
            "outputs": [
                {
                    "internalType": "address",
                    "name": "",
                    "type": "address"
                }
            ],
            "stateMutability": "view",
            "type": "function"
        },
        {
            "inputs": [
                {
                    "internalType": "address",
                    "name": "account",
                    "type": "address"
                }
            ],
            "name": "balanceOf",
            "outputs": [
                {
                    "internalType": "uint256",
                    "name": "",
                    "type": "uint256"
                }
            ],
            "stateMutability": "view",
            "type": "function"
        },
        {
            "inputs": [
                {
                    "internalType": "uint256",
                    "name": "",
                    "type": "uint256"
                }
            ],
            "name": "contacts",
            "outputs": [
                {
                    "internalType": "uint256",
                    "name": "id",
                    "type": "uint256"
                },
                {
                    "internalType": "string",
                    "name": "name",
                    "type": "string"
                },
                {
                    "internalType": "string",
                    "name": "phone",
                    "type": "string"
                }
            ],
            "stateMutability": "view",
            "type": "function"
        },
        {
            "inputs": [
                {
                    "internalType": "string",
                    "name": "_name",
                    "type": "string"
                },
                {
                    "internalType": "string",
                    "name": "_phone",
                    "type": "string"
                }
            ],
            "name": "createFunction",
            "outputs": [],
            "stateMutability": "nonpayable",
            "type": "function"
        },
        {
            "inputs": [],
            "name": "name",
            "outputs": [
                {
                    "internalType": "string",
                    "name": "",
                    "type": "string"
                }
            ],
            "stateMutability": "view",
            "type": "function"
        },
        {
            "inputs": [],
            "name": "symbol",
            "outputs": [
                {
                    "internalType": "string",
                    "name": "",
                    "type": "string"
                }
            ],
            "stateMutability": "view",
            "type": "function"
        },
        {
            "inputs": [],
            "name": "totalSupply",
            "outputs": [
                {
                    "internalType": "uint256",
                    "name": "",
                    "type": "uint256"
                }
            ],
            "stateMutability": "view",
            "type": "function"
        },
        {
            "inputs": [
                {
                    "internalType": "address",
                    "name": "to",
                    "type": "address"
                },
                {
                    "internalType": "uint256",
                    "name": "amount",
                    "type": "uint256"
                }
            ],
            "name": "transfer",
            "outputs": [],
            "stateMutability": "nonpayable",
            "type": "function"
        }
    ],
    "bytecode": "0x6080604052600080556040518060400160405280601081526020017f4d79204861726468617420746f6b656e00000000000000000000000000000000815250600290805190602001906200005592919062000146565b506040518060400160405280600381526020017f4d4854000000000000000000000000000000000000000000000000000000000081525060039080519060200190620000a392919062000146565b50620186a0600455348015620000b857600080fd5b5033600160006101000a81548173ffffffffffffffffffffffffffffffffffffffff021916908373ffffffffffffffffffffffffffffffffffffffff160217905550600454600660003373ffffffffffffffffffffffffffffffffffffffff1673ffffffffffffffffffffffffffffffffffffffff168152602001908152602001600020819055506200025b565b8280546200015490620001f6565b90600052602060002090601f016020900481019282620001785760008555620001c4565b82601f106200019357805160ff1916838001178555620001c4565b82800160010185558215620001c4579182015b82811115620001c3578251825591602001919060010190620001a6565b5b509050620001d39190620001d7565b5090565b5b80821115620001f2576000816000905550600101620001d8565b5090565b600060028204905060018216806200020f57607f821691505b602082108114156200022657620002256200022c565b5b50919050565b7f4e487b7100000000000000000000000000000000000000000000000000000000600052602260045260246000fd5b611011806200026b6000396000f3fe608060405234801561001057600080fd5b50600436106100885760003560e01c8063a9059cbb1161005b578063a9059cbb14610117578063a976415214610133578063b2bdfa7b1461014f578063e0f478cb1461016d57610088565b806306fdde031461008d57806318160ddd146100ab57806370a08231146100c957806395d89b41146100f9575b600080fd5b61009561019f565b6040516100a29190610b78565b60405180910390f35b6100b361022d565b6040516100c09190610c36565b60405180910390f35b6100e360048036038101906100de91906109e9565b610233565b6040516100f09190610c36565b60405180910390f35b61010161027c565b60405161010e9190610b78565b60405180910390f35b610131600480360381019061012c9190610a12565b61030a565b005b61014d60048036038101906101489190610a4e565b61051d565b005b6101576105ed565b6040516101649190610b5d565b60405180910390f35b61018760048036038101906101829190610aba565b610613565b60405161019693929190610c51565b60405180910390f35b600280546101ac90610e10565b80601f01602080910402602001604051908101604052809291908181526020018280546101d890610e10565b80156102255780601f106101fa57610100808354040283529160200191610225565b820191906000526020600020905b81548152906001019060200180831161020857829003601f168201915b505050505081565b60045481565b6000600660008373ffffffffffffffffffffffffffffffffffffffff1673ffffffffffffffffffffffffffffffffffffffff168152602001908152602001600020549050919050565b6003805461028990610e10565b80601f01602080910402602001604051908101604052809291908181526020018280546102b590610e10565b80156103025780601f106102d757610100808354040283529160200191610302565b820191906000526020600020905b8154815290600101906020018083116102e557829003601f168201915b505050505081565b6103886040518060400160405280601b81526020017f73656e6465722062616c616e636520697320257320746f6b656e730000000000815250600660003373ffffffffffffffffffffffffffffffffffffffff1673ffffffffffffffffffffffffffffffffffffffff1681526020019081526020016000205461074d565b6103eb6040518060600160405280602a8152602001610fb2602a9139600660003373ffffffffffffffffffffffffffffffffffffffff1673ffffffffffffffffffffffffffffffffffffffff1681526020019081526020016000205483856107e9565b80600660003373ffffffffffffffffffffffffffffffffffffffff1673ffffffffffffffffffffffffffffffffffffffff16815260200190815260200160002054101561046d576040517f08c379a000000000000000000000000000000000000000000000000000000000815260040161046490610c16565b60405180910390fd5b80600660003373ffffffffffffffffffffffffffffffffffffffff1673ffffffffffffffffffffffffffffffffffffffff16815260200190815260200160002060008282546104bc9190610d5e565b9250508190555080600660008473ffffffffffffffffffffffffffffffffffffffff1673ffffffffffffffffffffffffffffffffffffffff16815260200190815260200160002060008282546105129190610d08565b925050819055505050565b60008081548092919061052f90610e73565b91905055506040518060600160405280600054815260200183815260200182815250600560008054815260200190815260200160002060008201518160000155602082015181600101908051906020019061058b9291906108b4565b5060408201518160020190805190602001906105a89291906108b4565b509050507f5b238c329575695a37a8c7bec1baf72c825bb21c77c5fe0e5ff503d4850a4fdb60005483836040516105e193929190610c51565b60405180910390a15050565b600160009054906101000a900473ffffffffffffffffffffffffffffffffffffffff1681565b600560205280600052604060002060009150905080600001549080600101805461063c90610e10565b80601f016020809104026020016040519081016040528092919081815260200182805461066890610e10565b80156106b55780601f1061068a576101008083540402835291602001916106b5565b820191906000526020600020905b81548152906001019060200180831161069857829003601f168201915b5050505050908060020180546106ca90610e10565b80601f01602080910402602001604051908101604052809291908181526020018280546106f690610e10565b80156107435780601f1061071857610100808354040283529160200191610743565b820191906000526020600020905b81548152906001019060200180831161072657829003601f168201915b5050505050905083565b6107e58282604051602401610763929190610b9a565b6040516020818303038152906040527f9710a9d0000000000000000000000000000000000000000000000000000000007bffffffffffffffffffffffffffffffffffffffffffffffffffffffff19166020820180517bffffffffffffffffffffffffffffffffffffffffffffffffffffffff838183161783525050505061088b565b5050565b610885848484846040516024016108039493929190610bca565b6040516020818303038152906040527fbed728bf000000000000000000000000000000000000000000000000000000007bffffffffffffffffffffffffffffffffffffffffffffffffffffffff19166020820180517bffffffffffffffffffffffffffffffffffffffffffffffffffffffff838183161783525050505061088b565b50505050565b60008151905060006a636f6e736f6c652e6c6f679050602083016000808483855afa5050505050565b8280546108c090610e10565b90600052602060002090601f0160209004810192826108e25760008555610929565b82601f106108fb57805160ff1916838001178555610929565b82800160010185558215610929579182015b8281111561092857825182559160200191906001019061090d565b5b509050610936919061093a565b5090565b5b8082111561095357600081600090555060010161093b565b5090565b600061096a61096584610cbb565b610c96565b90508281526020810184848401111561098257600080fd5b61098d848285610dce565b509392505050565b6000813590506109a481610f83565b92915050565b600082601f8301126109bb57600080fd5b81356109cb848260208601610957565b91505092915050565b6000813590506109e381610f9a565b92915050565b6000602082840312156109fb57600080fd5b6000610a0984828501610995565b91505092915050565b60008060408385031215610a2557600080fd5b6000610a3385828601610995565b9250506020610a44858286016109d4565b9150509250929050565b60008060408385031215610a6157600080fd5b600083013567ffffffffffffffff811115610a7b57600080fd5b610a87858286016109aa565b925050602083013567ffffffffffffffff811115610aa457600080fd5b610ab0858286016109aa565b9150509250929050565b600060208284031215610acc57600080fd5b6000610ada848285016109d4565b91505092915050565b610aec81610d92565b82525050565b6000610afd82610cec565b610b078185610cf7565b9350610b17818560208601610ddd565b610b2081610f49565b840191505092915050565b6000610b38601183610cf7565b9150610b4382610f5a565b602082019050919050565b610b5781610dc4565b82525050565b6000602082019050610b726000830184610ae3565b92915050565b60006020820190508181036000830152610b928184610af2565b905092915050565b60006040820190508181036000830152610bb48185610af2565b9050610bc36020830184610b4e565b9392505050565b60006080820190508181036000830152610be48187610af2565b9050610bf36020830186610b4e565b610c006040830185610b4e565b610c0d6060830184610ae3565b95945050505050565b60006020820190508181036000830152610c2f81610b2b565b9050919050565b6000602082019050610c4b6000830184610b4e565b92915050565b6000606082019050610c666000830186610b4e565b8181036020830152610c788185610af2565b90508181036040830152610c8c8184610af2565b9050949350505050565b6000610ca0610cb1565b9050610cac8282610e42565b919050565b6000604051905090565b600067ffffffffffffffff821115610cd657610cd5610f1a565b5b610cdf82610f49565b9050602081019050919050565b600081519050919050565b600082825260208201905092915050565b6000610d1382610dc4565b9150610d1e83610dc4565b9250827fffffffffffffffffffffffffffffffffffffffffffffffffffffffffffffffff03821115610d5357610d52610ebc565b5b828201905092915050565b6000610d6982610dc4565b9150610d7483610dc4565b925082821015610d8757610d86610ebc565b5b828203905092915050565b6000610d9d82610da4565b9050919050565b600073ffffffffffffffffffffffffffffffffffffffff82169050919050565b6000819050919050565b82818337600083830152505050565b60005b83811015610dfb578082015181840152602081019050610de0565b83811115610e0a576000848401525b50505050565b60006002820490506001821680610e2857607f821691505b60208210811415610e3c57610e3b610eeb565b5b50919050565b610e4b82610f49565b810181811067ffffffffffffffff82111715610e6a57610e69610f1a565b5b80604052505050565b6000610e7e82610dc4565b91507fffffffffffffffffffffffffffffffffffffffffffffffffffffffffffffffff821415610eb157610eb0610ebc565b5b600182019050919050565b7f4e487b7100000000000000000000000000000000000000000000000000000000600052601160045260246000fd5b7f4e487b7100000000000000000000000000000000000000000000000000000000600052602260045260246000fd5b7f4e487b7100000000000000000000000000000000000000000000000000000000600052604160045260246000fd5b6000601f19601f8301169050919050565b7f4e6f7420656e6f75676820746f6b656e73000000000000000000000000000000600082015250565b610f8c81610d92565b8114610f9757600080fd5b50565b610fa381610dc4565b8114610fae57600080fd5b5056fe747279696e6720746f2073656e6420257320746f6b656e7320746f20257320746f6b656e20746f202573a26469706673582212203167f6bdfca212fb64f884132beb3536050920cb53afe44a95aca6e4e2ab8ce264736f6c63430008040033",
    "linkReferences": {},
    "deployedLinkReferences": {}
}